:1000000023C300003FC300000C943B0F3BC3000020
:1000100039C3000037C3000035C3000033C30000FC
:1000200031C300002FC300000C9471120C949F1375
:1000300029C3000027C3000025C3000023C300001C
:1000400021C300000C946A0F1DC300001BC30000F5
:1000500019C300000C94BE0F15C3000013C30000A9
:1000600011C300000FC300000DC300000BC300004C
:1000700009C3000007C300000C94BD1903C30000AE
:1000800001C30000FFC20000FDC20000FBC200006F
:10009000F9C20000F7C2000000291E1F2021222300
:1000A000242526272D2E2A2B141A0815171C180C68
:1000B00012132F3028E0041607090A0B0D0E0F3318
:1000C0003435E1311D1B0619051110363738E55559
:1000D000E22C393A3B3C3D3E3F4041424353475F6F
:1000E0006061565C5D5E57595A5B6263C2BE644490
:1000F0004567B0B28CB7B8B9BABBBCBD68696A6BAA
:100100006C6D6E6F707172C188B1B387B4B5739343
:10011000928ABF8BB68985C00142003E3C3A3B457E
:100120006843413F3D2B356769E2E188E0141EB02A
:100130006AB11D16041A1FB26B061B070821208C1A
:100140006C2C1909171522B76D11050B0A1C23B861
:100150006EB3100D182425B96F360E0C122726BA6F
:100160007037380F33132DBB718734B42F2EBC7208
:1001700039E52830B531BD73BE6493928ABF2A8BAE
:10018000B659895C5F85C0C162635A5D5E60295360
:1001900044575B565561470000000040C200000014
:1001A00000000000000000000000000000F9E60070
:1001B00000E4E90000FF000000000000E3FEF000A2
:1001C000EC000000E7FD0000F700000065FC00EF18
:1001D00000EB000066FB00FAEA000000A9F800004E
:1001E0000000000000F600540000E80000F50000E8
:1001F0000000000000000058000000AA00000000FD
:100200000000000000004D00504A000000494C5121
:10021000004F52000000004E00464B4801BF00BB9B
:10022000B9B7B83A68C0BEBCBA2B353B69E0E164E7
:1002300039141E3C6AE21D16041A1F3D6B061B078B
:100240000821203E6C2C19091715223F6D11050B52
:100250000A1C23406EE6100D182425416F360E0C43
:10026000122726427037380F33132D4371873432EB
:100270002F2E4472E4E52830318945735150935252
:100280004C4D2A49B6594F5C5F4E4A4B62635A5DEA
:100290005E602953B2575B5655614700000000BDB0
:1002A000C20A4D6F64653A2041542F5053320A0AF6
:1002B000000A4D6F64653A2050432F58540A0A00D3
:1002C000756E6B6E6F776E00322028657874656E80
:1002D0006465642900436F6465205365743A2000A7
:1002E0004B6579626F6172642049443A20000001D5
:1002F0000000580312000200006A0374002200008C
:10030000DE0312002100007C030900220100F0033B
:100310001500210100950309002202000504DC00FC
:10032000210200AE030900220300E1041C002103A6
:1003300000C7030900030000FD04040103090401D0
:10034000050E0203090411053801C10601C1260189
:10035000C12601C13601C036120100020000002092
:10036000C0167D04000101020001090274000401AD
:1003700000A032090400000103010100092111015C
:100380000001221200070581030800010904010091
:1003900001030000000921110100012215000705D9
:1003A0008303200001090402000103000000092169
:1003B0001101000122DC0007058203170001090476
:1003C00003000203000000092111010001221C00AA
:1003D00007058403400002070505034000080501E6
:1003E0000906A101150026FF00950875088103C0C4
:1003F0000631FF0974A1537508150026FF009520EA
:1004000009758102C005010906A1018501750195E3
:1004100008050719E029E7150025018102950575F2
:1004200001050819012905910295017503910375CC
:100430000195310507190129311500250181029522
:1004400001750181037501956905071933299B150C
:10045000002501810295017501810375019508054B
:1004600007199D29A41500250181029504750181B4
:1004700003C005010980A101850275019503198159
:100480002983150025018102950575018103C005A9
:100490000C0901A10185037501951809B509B60973
:1004A000B709CD09E209E509E709E909EA0A5201B4
:1004B0000A53010A54010A55010A83010A8A010AF2
:1004C00092010A94010A21020A23020A24020A253F
:1004D000020A26020A27020A2A02150025018102C1
:1004E000C00699FF0A6824A1017508150026FF00BF
:1004F000954009018102954009029102C004030957
:10050000040E0353006F006100720065007200006A
:1005100000380353006F006100720065007200270D
:1005200000730020004B006500790062006F0061DD
:100530000072006400200043006F006E00760065CA
:100540000072007400650072000000616C6C6F63E3
:10055000206F6B2E0A00616C6C6F63206661696CA2
:1005600065642E0A006D6174726978206B65797319
:100570003A20006D617472697820756E7374726FC1
:100580006265643A20006D61747269782073656EEB
:100590007365733A20006D617472697820737472A8
:1005A0006F6265733A2000746F74616C5F6D616394
:1005B000726F733A20006D61785F6C617965723A91
:1005C00020006C61796572646566733A2000216170
:1005D00070706C790A006C656E3C320A000A0A720F
:1005E000656D61696E696E673A200021696420005B
:1005F0002173657420002173656C65637420006D40
:1006000061747269782000636F6E66696720006D9F
:100610006163726F73200072656D61707320006C8E
:10062000617965727320006572726F722000030138
:10063000000101140201030400000500200700006E
:10064000060010080000000011241FBECFEFD0E20A
:10065000DEBFCDBF11E0A0E0B1E0E8E7F5E400E0E7
:100660000BBF02C007900D92AA31B107D9F713E072
:10067000AAE1B1E001C01D92AB3CB107E1F703D2A2
:100680000C94BA22BDCCDF93CF931F930F93FF92AC
:10069000EF92DF92CF92BF92AF929F928F927F9212
:1006A0006F92203019F0403009F001C041C0AC2CED
:1006B0006801922E842EDC01AA0CAA0C603029F469
:1006C00007EA13E02EEA33E032C0613029F407EA8A
:1006D00013E025EB33E02BC0623029F407EA13E086
:1006E0002CEB33E024C0633029F40CEB13E025EB52
:1006F00033E01DC0643029F40EEA13E027EA33E04A
:1007000016C0653029F405EB13E027EA33E00FC08B
:10071000663029F40CEB13E027EA33E008C06730B9
:1007200029F405EB13E02CEB33E001C001C02BD022
:100730006F907F908F909F90AF90BF90CF90DF9001
:10074000EF90FF900F911F91CF91DF9108950A8054
:1007500007200A8209800628098208950980072057
:1007600009820A8006280A8208950A8006280A82D9
:1007700009800628098208950980072009820A80D5
:1007800007200A820895D0E0F60161916190762CED
:1007900070946F01C62FF80109954A2D4A95000003
:1007A000E9F7F701B92CC19191918C91880F0880DC
:1007B000092209F081608D93BA94A9F7C62FF90137
:1007C00009958A9409F70895DF93CF931F930F93A8
:1007D000FF92EF92DF92CF92BF92AF929F928F9251
:1007E0007F926F925F924F92562F2801922E842E05
:1007F000DC01AA0CAA0CE6019981903069F008800E
:1008000006FE05C00EEA13E027EA33E009C007EA56
:1008100013E02EEA33E004C000E010E020E030E016
:1008200011D04F905F906F907F908F909F90AF907E
:10083000BF90CF90DF90EF90FF900F911F91CF91DD
:10084000DF910895D0E040E0F20141905190F6012F
:1008500061916F736190762C7094962D903011F0A9
:10086000689401C0E894742F7095872F7521972F95
:100870009095C42D0980082209820A80042A092241
:100880000A820980072A09821EF4C62FF8010995F9
:10089000BA2CBA940000E9F7F701B92CC1919191F3
:1008A0008C91880F0880092209F081608D93BA9499
:1008B000A9F71EF4C62FF9010995450F8A9499F6F8
:1008C0000895833038F5E82FF0E0EE0FFF1FE15E6A
:1008D000FE4F862F86958695869590E0877090705E
:1008E0009C01220F331F280F391F922F905E233156
:1008F00070F4862F807C982B9083677081E090E065
:1009000002C0880F991F6A95E2F78183089582E3F8
:100910008083118208950E94AE200E94BA20109216
:100920001C0110921D0110921E0108951F93182F93
:100930000E94A620282FAFE1B1E011969C9111975B
:100940009923C9F110FF06C08C91E82FF0E086FFD3
:1009500008C00DC08C912223E1F0E82FF0E086FF63
:1009600006C0EF73F07082819095892306C0EF7303
:10097000F07087FF12C08281892B8283EC91F0E0B6
:10098000EF73F070818111969C911197892B81836F
:1009900012C0E82FF0E0EF73F07081819095892309
:1009A0008183EC91F0E0EF73F070828111969C915D
:1009B0001197892B828381E0A332B80719F0129630
:1009C0001695BBCF1F9108958AE00E9479168AE0A0
:1009D0000E94791680EE92E00E94951680911A018D
:1009E00090911B010E948D168AE00E94791685ED78
:1009F00092E00E94951680910001823061F0833070
:100A000018F4813089F405C0833049F0843061F4F2
:100A100008C081E301C082E30E94791609C083E324
:100A2000FBCF88EC92E002C080EC92E00E94951629
:100A300080914501823019F481EB92E002C081EA95
:100A400092E00C9495160F931F930E94A320182FE9
:100A50000E94A620082F079500270795012B80915B
:100A60002501081769F0902F9170990F802F8695B6
:100A70008170982B802F8470892B58DF009325017B
:100A80001F910F910895CF92DF92EF92FF921F93E3
:100A90009FB7F89485B7806885BF85B7806885BFA4
:100AA0009FBF80E88093610010926100569A80E0B9
:100AB0003DDF87E03BDF0E94B00F0E94A92039D1C3
:100AC0002ADF80E060E070E00E94A71A0E945F1DAC
:100AD00080E02CDF8FB7F894C0905201D090530182
:100AE000E0905401F09055018FBF6EDF10E0ABDF56
:100AF000DBD3882361F08FB7F894C0905201D09077
:100B00005301E0905401F09055018FBF02C01123B2
:100B1000C9F02FB7F8948091520190915301A091A0
:100B20005401B09155012FBF8C199D09AE09BF0921
:100B3000C397A105B10510F411E004C08AE00E943A
:100B4000791610E00E94571ED2CF982F977090937D
:100B50003B01869586958695982F977090933601E0
:100B6000869586958695817080933701962F97702C
:100B70009093020162956F70862F8170809340017F
:100B80006695617060933D0140930101442319F41F
:100B900081E08093010180910101803410F0109276
:100BA0000101992319F481E0809302010895582FDF
:100BB00070913501772311F480E00895869586952C
:100BC000869590E0877090709C01220F331F280F4C
:100BD000391F922F905E233180F4852F807C982BD3
:100BE00090933301577081E090E002C0880F991F05
:100BF0005A95E2F78093340105C082E38093330174
:100C000010923401862F86958695869590E08770A0
:100C100090709C01220F331F280F391F922F905E76
:100C2000233180F4862F807C982B9093310167705C
:100C300081E090E002C0880F991F6A95E2F78093E7
:100C4000320105C082E38093310110923201842F7A
:100C500086958695869590E0877090709C01220F0E
:100C6000331F280F391F922F905E233180F4842F79
:100C7000807C982B90932F01477081E090E002C018
:100C8000880F991F4A95E2F78093300105C082E3EF
:100C900080932F01109230013091340120E090E0D8
:100CA00080E003C0292B930F8F5F8717D8F3209321
:100CB000340181E008951092410110924201109296
:100CC000430110922B011092280110922E011092D4
:100CD0003F0110923E01109239011092380108959F
:100CE00090913401382F392380958923A4E3B1E012
:100CF000EE91F0E0EF73F0709181232F2095922315
:100D00009183EC91F0E0EF73F0709281932B9283DA
:100D1000EC91F0E0EF73F0702281982F9095922380
:100D20009283EC91F0E0EF73F0709181892B8183D5
:100D3000089520E035C0822F90E0880F991FA09180
:100D40002601B0912701A80FB91F80913701EC91BE
:100D500011969C911197882391F0F0E0EF73F07059
:100D60008181909589238183EC91F0E0EF73F0709D
:100D7000928111968C9180959823928310C0F0E017
:100D8000EF73F0708181909589238183EC91F0E07D
:100D9000EF73F070828111969C91892B82832F5F73
:100DA00080912801281738F280913501882309F4B1
:100DB00065C090913001992361F180912F01E82F56
:100DC000F0E086FF06C0EF73F07082819095892372
:100DD00006C0EF73F07087FF0EC08281892B82837B
:100DE000E0912F01F0E0EF73F0708181909130017C
:100DF000892B81830EC08181909589238183E09125
:100E00002F01F0E0EF73F070828190913001892B17
:100E1000828390913201992361F180913101E82F11
:100E2000F0E086FF06C0EF73F07082819095892311
:100E300006C0EF73F07087FF0EC08281892B82831A
:100E4000E0913101F0E0EF73F07081819091320117
:100E5000892B81830EC08181909589238183E091C4
:100E60003101F0E0EF73F070828190913201892BB3
:100E7000828380913401882309F032DF40E08DC005
:100E8000809136018330A9F1843058F4813089F1A2
:100E9000A42FB0E02091290130912A01823020F561
:100EA0000AC08530D9F18530C8F18630B9F1873074
:100EB00009F072C052C0AA0FBB1FA20FB31FEC9162
:100EC000F0E0EF73F070918111968C9111978095FD
:100ED00098239183EC91F0E0EF73F070828111968A
:100EE0009C91892B828358C0AA0FBB1FA20FB31FEE
:100EF0003EC0842F90E0880F991FA0912901B091E6
:100F00002A01A80FB91FEC91F0E0EF73F070828115
:100F100011969C911197892B828315C0842F90E0A4
:100F2000880F991FA0912901B0912A01A80FB91F1C
:100F3000EC91F0E0EF73F070928111968C91119723
:100F4000809598239283EC91F0E0EF73F0708181AB
:100F500011969C91892B81831FC0842F90E0880F6C
:100F6000991FA0912901B0912A01A80FB91FEC91F6
:100F7000F0E0EF73F070918111968C91119780954C
:100F800098239183EC91F0E0EF73F07092811196C9
:100F90008C918095982392834F5F80912B01481705
:100FA00008F46ECF20E031C0822F90E0880F991FA7
:100FB000A0912C01B0912D01A80FB91F8C9190E048
:100FC000FC01EF73F07011969C91119786FF0FC092
:100FD0008181909589238183EC91F0E0EF73F0702B
:100FE000928111968C918095982392830DC0818176
:100FF000909589238183EC91F0E0EF73F07082810A
:1010000011969C91892B82832F5F80912E01281746
:1010100058F280913701882311F45FEF01C050E04E
:1010200040913801842F909139019C01F90101C050
:1010300051939E2F941B80913A019817C8F30895FD
:10104000909130019923A1F0E0912F01F0E0EF732E
:10105000F0708181909589238183E0912F01F0E0E8
:10106000EF73F07092818091300180959823928384
:1010700090913201992361F0E0913101F0E0EF733A
:10108000F070818190958923818382818923828375
:1010900080913401882309F023DE30912801A0914A
:1010A0002601B091270120E018C0EC91F0E0EF7329
:1010B000F070918111968C9111978095982391836E
:1010C000EC91F0E0EF73F070928111968C91119792
:1010D0008095982392832F5F1296231730F33091D7
:1010E0002B01A0912901B0912A0120E018C0EC91B8
:1010F000F0E0EF73F070918111968C9111978095CB
:1011000098239183EC91F0E0EF73F0709281119647
:101110008C9111978095982392832F5F12962317B5
:1011200030F330912E01A0912C01B0912D0120E0DF
:1011300018C0EC91F0E0EF73F070918111968C91F2
:101140001197809598239183EC91F0E0EF73F07004
:10115000928111968C9111978095982392832F5F9D
:101160001296231730F3A7CDEF92FF920F931F93A0
:10117000182F8CE50E947916812F0E94831680E239
:101180000E947916212F30E0E0913E01F0913F015D
:10119000E20FF31FE080EE2009F469C08091400166
:1011A000882309F461C0F0902B0100912801E02F01
:1011B000F0E08F2D90E0AC01E49FC001E59F900D21
:1011C000F49F900D1124281739070CF04DC0812F82
:1011D000602F0E945C22A82F812F0E945C22792F11
:1011E0008091020128E030E0281B31094FEF50E0E8
:1011F00002C0559547952A95E2F7642F80913701F3
:10120000882311F450E001C0542F2091380130910F
:1012100039018A2F90E08E9FD0018F9FB00D9E9F45
:10122000B00D1124A20FB31F90E040E007C08C91D5
:101230008623851709F44F5F9F5F11969017B8F3C7
:10124000D901A70FB11D90E020E008C08C91862342
:10125000851709F42F5F9F5FAE0FBF1F9F15B0F377
:10126000423010F0223018F48E2D0E94DC201F91A5
:101270000F91FF90EF9008951F93182F8FE20E9417
:101280007916812F0E94831680E20E947916E091E0
:101290003E01F0913F01E10FF11D8081882311F0A3
:1012A0000E94BD201F9108959F92AF92BF92CF924E
:1012B000DF92EF92FF920F931F93CF93DF932091D2
:1012C000520180913C01922F981B80913B0189171C
:1012D00010F010E01DC120933C018091340188235F
:1012E00009F463C020913201222301F18091310180
:1012F000E82FF0E086FF10C0EF73F07087FF03C0A7
:101300008281822B0FC08181922F909589238183C6
:101310008281822B82830AC0EF73F0708281922FC8
:101320009095892382838181822B818380913401EE
:10133000682F660F68276823E0902601F090270148
:101340008091380190913901409135012091280117
:1013500003E311E0FFE2CF2EF1E0DF2EA0900101C8
:1013600033DA20913201222301F180913101E82FFB
:10137000F0E086FF07C0EF73F0708281922F9095A6
:10138000892306C0EF73F07087FF07C08281822B2C
:1013900082838181822B818308C08181922F9095E5
:1013A000892381838281822B82832091280140912D
:1013B0003501249FA00111248091380190913901B9
:1013C0000091290110912A01E0902601F090270157
:1013D000840F951F6091360140912B01C09001014F
:1013E00052D950912E01552309F444C080912B010C
:1013F0002091350130E0280F311D8091280190E0C7
:10140000BC01269FC001279F900D369F900D11248F
:10141000A0913801B0913901A80FB91FC0912C01DA
:10142000D0912D0160E080913701882309F461E0BB
:10143000452F01E010E041502C91220F3881E32F1D
:10144000F0E0EF73F07080819981892309F02160C9
:10145000832F90E0E6E096958795EA95E1F780275F
:1014600091278170862782278C93442319F0119647
:101470002296E1CF90903D018091020127E030E07B
:10148000281B31098FEF90E002C0959587952A952A
:10149000E2F7F82EC82EC69480913701882319F4FC
:1014A000EE24E39404C0CF24EE24E394EF24BC2C78
:1014B000BF24AE2CAF24C0913801D0913901809166
:1014C0002B0190913501890F90912801899FD02C93
:1014D0001124D50E10E000E019C09881892F8150A9
:1014E0008E3F90F48F2D89238B1531F08C1549F0A8
:1014F000992051F08A1519F4802F36DE04C08E151C
:1015000019F4802FB9DE1F5F21960F5F0D1528F3A8
:10151000812FDF91CF911F910F91FF90EF90DF907E
:10152000CF90BF90AF909F900895DF92EF92FF927F
:101530000F931F93CF93DF937C01D62E209144010C
:1015400030E0260F311D80913A0190E08217930719
:1015500014F480E014C000913E0110913F01C0E0FE
:10156000D0E007C00E949F22F801EC0FFD1F80838E
:101570002196C7018C0F9D1FCD15A0F381E0DF914F
:10158000CF911F910F91FF90EF90DF900895BF9240
:10159000CF92DF92EF92FF920F931F93CF93DF933F
:1015A000C82E492FD62E20912E0130E0260F311D56
:1015B0008091430190E08217930714F480E041C0CA
:1015C00000912C0110912D018C2D942F9C01E9018B
:1015D00092E3B92E81E0E82EF12C2EC0CE010E94BC
:1015E0009F22482F50912E01E52FF0E0EE0FFF1FB4
:1015F000E00FF11F86958695869590E08770907034
:101600009C01220F331F280F391F922F905E233128
:1016100068F4842F807C982B90834770C70102C0A8
:10162000880F991F4A95E2F7818302C0B082118228
:1016300021965F5F50932E019E012C192D1570F29B
:1016400081E0DF91CF911F910F91FF90EF90DF909C
:10165000CF90BF900895BF92CF92DF92EF92FF920A
:101660000F931F93CF93DF93C82E492FD62E20912F
:10167000280130E0260F311D8091420190E0821751
:10168000930714F480E044C00091260110912701D3
:101690008C2D942F9C01E901F2E3BF2EE1E0EE2EA8
:1016A000F12C2EC0CE010E949F22482F509128017C
:1016B000E52FF0E0EE0FFF1FE00FF11F86958695F6
:1016C000869590E0877090709C01220F331F280F41
:1016D000391F922F905E233168F4842F807C982BE1
:1016E00090834770C70102C0880F991F4A95E2F79F
:1016F000818302C0B082118221965F5F50932801DE
:101700009E012C192D1570F28AE00E94791681E055
:10171000DF91CF911F910F91FF90EF90DF90CF90CD
:10172000BF900895BF92CF92DF92EF92FF920F93F6
:101730001F93CF93DF93C82E492FD62E20912B01D4
:1017400030E0260F311D8091410190E08217930710
:1017500014F480E044C00091290110912A018C2DDD
:10176000942F9C01E90192E3B92E81E0E82EF12C3F
:101770002EC0CE010E949F22482F50912B01E52FB1
:10178000F0E0EE0FFF1FE00FF11F8695869586951E
:1017900090E0877090709C01220F331F280F391F33
:1017A000922F905E233168F4842F807C982B908355
:1017B0004770C70102C0880F991F4A95E2F78183DD
:1017C00002C0B082118221965F5F50932B019E016F
:1017D0002C192D1570F28AE00E94791681E0DF91B4
:1017E000CF911F910F91FF90EF90DF90CF90BF901E
:1017F00008956F927F928F929F92AF92BF92CF92F5
:10180000DF92EF92FF920F931F93CF93DF93982E67
:10181000862E742E622E862F90E05C01AA0CBB1CD3
:1018200050E06A01CC0CDD1C30E07901EE0CFF1CAD
:10183000890D911D489F8001499F100D589F100DE3
:101840001124020F131FE601CA0DDB1DCE0DDF1D93
:10185000C00FD11FC00FD11FCE01F5D39C0100973F
:1018600011F480E03AC090932A01809329018A0DF7
:101870009B1D90932701809326018C0D9D1D9093B5
:101880002D0180932C018E0D9F1D90933F0180931D
:101890003E01800F911F909339018093380180E0C1
:1018A00090E005C0F901E80FF91F108201968C172E
:1018B0009D07C0F3909235018092410170924201E0
:1018C0006092430100933A0110922B01109228017B
:1018D00010922E011092440181E0DF91CF911F916F
:1018E0000F91FF90EF90DF90CF90BF90AF909F90BF
:1018F0008F907F906F9008959C0180918100887FE8
:101900008093810080916F008D7F80936F00109293
:1019100085001092840082E086BB2115310581F09C
:10192000220F331F309389002093880080916F002D
:10193000826080936F00809181008260809381003B
:101940000895882319F05098589A08955898509AF5
:101950000895382F4DB3E9980000882319F0519865
:10196000599A02C0519A599824E189B190E096950C
:1019700087958170831711F02150B9F782E08CBBF5
:1019800041FF02C0E99A01C0E9988DB30895882308
:1019900021F080910A0180930B0189B190E0969526
:1019A0008795982F917080910B018F3F21F481E0F2
:1019B000892780930B0180910B01813089F0813060
:1019C00018F08E3FB9F419C09923C9F08AE590E068
:1019D00093DF8EEF80930A0181E080930B010AC0B0
:1019E000992369F488EE93E087DF8FEF80930A01F3
:1019F00010920B0191E0892F089592E001C094E0CC
:101A00008FEF80930B01F7CF1F9319B111708823CB
:101A100021F08091030180930401809104018230C0
:101A2000F1F0833020F4813009F04BC006C08330E0
:101A300079F18E3F09F045C03AC08EEF80930301E3
:101A400080EB94E059DF1092490110924801112374
:101A500011F416E02DC082E08093040132C0179586
:101A600011271795809148018695182B10934801EE
:101A7000809149018F5F80934901883011F513E00F
:101A80001093030188E790E037DF1093040119C039
:101A900080E090E031DF809148018093460112E0C0
:101AA00007C088EB9BE056D2109347010AC015E0AF
:101AB00080E090E021DF81E080930401123089F71B
:101AC000F3CF1F9108950F931F93982F80910701D3
:101AD0008F3F19F482E080930701992321F08091D0
:101AE00006018093070180910701873009F460C0E7
:101AF000883088F4843009F43EC0853030F4823078
:101B0000E9F0833009F081C02CC08530B1F1863016
:101B100009F07BC04BC08A3009F45FC08B3038F4C9
:101B2000883009F44FC0893009F06FC04DC08B3048
:101B300009F457C08E3F09F068C05AC080914A012D
:101B400080934B0188E080934C0181E080930501F4
:101B500083E08093060188EC90E0CEDE80E0F9DE41
:101B600054C080E0EEDE81E0F4DE8EEF809306016B
:101B700080E29EE4C1DE85E031C010914B01012F6F
:101B80000170802FDEDE169510934B0180910501C8
:101B900080278093050180914C01815080934C01F6
:101BA000882311F084E01AC086E018C087E016C0D0
:101BB00080910501C6DE80914C01815080934C01DB
:101BC00088E00CC089E00AC081E0BBDE80914C0156
:101BD000815080934C018AE001C08BE08093070123
:101BE00014C080E090E088DE48992CC012E007C065
:101BF00010914C011295107F1560123030F081E089
:101C0000A0DE8FEF8093070119C089B120910701F1
:101C100030E02170307090E09695879581709070DB
:101C20002817390711F411E009C081E08ADE8FEF2F
:101C30008093070188EB9BE08DD114E0812F1F91E9
:101C40000F91089519E0DBCFFF920F931F93F9B026
:101C500099B1882329F08FEF8093090115E07DC0A9
:101C6000809109018F3F19F481E080930901092FC8
:101C70000170109109011630E9F1173040F4143069
:101C8000D9F01530D8F4113009F050C008C0183020
:101C9000D9F1183088F1193009F048C037C080EB0D
:101CA00094E02ADE10924E0110924D01109308012B
:101CB000002309F057C01CC085E017C0902F9795EE
:101CC0009927979580914D018695982B90934D017A
:101CD0008091080180278093080180914E018F5FD9
:101CE00080934E01883021F486E0809309011EC064
:101CF00084E0FBCF87E0F9CF80910801801711F0D5
:101D000017E031C088E0F1CF89E0EFCF002349F040
:101D100080914D018093460181E08093450112E05E
:101D200022C088EB9BE016D118E01DC0209109016C
:101D300030E0217030708F2D90E0969587958170FE
:101D400090702817390711F411E007C08FEF8093C6
:101D5000090188EB9BE0FED014E0812F1F910F91C9
:101D6000FF90089516E080E090E0C6DD8FEF80934D
:101D70000901F3CFDF92EF92FF920F931F93082F89
:101D80008230F9F480914501823021F483E0809320
:101D90004F016BC080915101813079F483E08093D1
:101DA000510180914F01882319F088EB9BE0D2D03C
:101DB00081E080934F0100E004C081E080935001F6
:101DC00054C0FF24F394A2E0DA2EF3E0EF2E8091CA
:101DD0005101813031F1813030F0823081F1833036
:101DE00009F043C039C0802FD2DD823008F43DC0F5
:101DF000823069F780915001882379F01092500168
:101E000080914F01882319F088EB9BE0A3D0F092DA
:101E10004F01E092510100E0DACF81E0809351015F
:101E200024C049991FC080914F01882319F088EB85
:101E30009BE090D0F0924701D0925101C8CF802F03
:101E400003DF182F823088F0823019F088EB9BE096
:101E500081D01093470106C0802F35DE823028F0F4
:101E600080934F0110925101B2CF1F910F91FF90BB
:101E7000EF90DF9008951F920F920FB60F920BB65E
:101E80000F9211242F933F934F935F936F937F9300
:101E90008F939F93AF93BF93EF93FF9380914501EF
:101EA000823019F480E0B0DD02C080E063DFFF9192
:101EB000EF91BF91AF919F918F917F916F915F91C2
:101EC0004F913F912F910F900BBE0F900FBE0F902F
:101ED0001F9018951F920F920FB60F920BB60F928C
:101EE00011242F933F934F935F936F937F938F931F
:101EF0009F93AF93BF93EF93FF9380918100887F6F
:101F00008093810080916F008D7F80936F0000002F
:101F1000109285001092840082E086BB809145017A
:101F2000823019F481E070DD02C081E023DFFF918F
:101F3000EF91BF91AF919F918F917F916F915F9141
:101F40004F913F912F910F900BBE0F900FBE0F90AE
:101F50001F90189590935701809356015E9A0895AB
:101F6000EEE6F0E08081826080838AEF87BD82E0C8
:101F700084BD15BC85B5836085BD08951F920F9201
:101F80000FB60F920BB60F9211242F933F934F93DE
:101F90005F936F937F938F939F93AF93BF93EF93D1
:101FA000FF938091520190915301A0915401B091FF
:101FB00055010196A11DB11D8093520190935301CB
:101FC000A0935401B093550180915601909157010F
:101FD000009731F00197909357018093560101C00B
:101FE0005E9880915801882341F481E080935801E4
:101FF00078940E94462110925801FF91EF91BF9171
:10200000AF919F918F917F916F915F914F913F9190
:102010002F910F900BBE0F900FBE0F901F90189531
:1020200020910E0130910F012115310521F42DB7BA
:102030003EB7205230408091100190911101281B31
:10204000390BC9010895AC0120910E0130910F01A7
:102050002115310521F42DB73EB720523040809133
:10206000100190911101281B390B2417350718F422
:1020700020E030E007C0480F591F509311014093F2
:1020800010019C01C90108958BEC93E0909311011C
:1020900080931001089510926501109266011092CC
:1020A0006701109268011092690110926A01EEE6D0
:1020B000F1E0119281E0E938F807D9F710925C015C
:1020C0008FE00895E8DF81E88093D70080EA80936D
:1020D000D80086E189BD09B400FEFDCF80E9809378
:1020E000D8001092E00010925E01109259011092F7
:1020F0005A0110925B018DE28093E200789408957A
:1021000080915B01882361F080915A01882341F41A
:102110008091E00082608093E00081E080935A012A
:102120000895582F382F3150343A10F040E014C041
:10213000E32FE695E695E695F0E0E259FE4F232F72
:10214000277081E090E002C0880F991F2A95E2F77E
:102150002081282B208343E0852F885A8330A0F4E8
:10216000E52FE695E695E695F0E0E259FE4F252F3E
:10217000277081E090E002C0880F991F2A95E2F74E
:102180002081282B20834460852F885E8831A8F425
:10219000252F2853E22FE695E695E695F0E0E259E3
:1021A000FE4F277081E090E002C0880F991F2A95AA
:1021B000E2F72081282B20834860252F205E2830DD
:1021C00080F481E090E002C0880F991F2A95E2F721
:1021D000982F882331F080915C01892B80935C01DA
:1021E00015C0343AD0F4E5E6F1E080818517A9F016
:1021F000319681E0EB36F807C1F720E030E0F901D5
:10220000EB59FE4F8081882319F45083436005C049
:102210002F5F3F4F2630310591F7842F0895482FC7
:10222000282F2150243A10F030E014C0E22FE69518
:10223000E695E695F0E0E259FE4F277081E090E0E8
:1022400002C0880F991F2A95E2F78095208182238A
:10225000808333E0842F885A8330A8F4E42FE695F6
:10226000E695E695F0E0E259FE4F242F277081E0D5
:1022700090E002C0880F991F2A95E2F7809520818F
:10228000822380833460842F885E8831B0F4242FC9
:102290002853E22FE695E695E695F0E0E259FE4FE9
:1022A000277081E090E002C0880F991F2A95E2F71D
:1022B00080952081822380833860242F205E2830FF
:1022C00050F481E090E002C0880F991F2A95E2F750
:1022D000982F882319F4E5E6F1E008C090958091E5
:1022E0005C01892380935C0133600AC0808184177C
:1022F00011F410823360319681E0EB36F807B1F7C4
:10230000832F0895982F80915E01882309F492C04D
:1023100090FF2EC02FB7F89481E08093E900809160
:10232000E80085FF24C080915C018093F100109249
:10233000F100809165018093F100809166018093A6
:10234000F100809167018093F10080916801809392
:10235000F100809169018093F10080916A0180937E
:10236000F1008AE38093E800109264019E7F2FBF02
:1023700080911201882309F45CC091FF20C02FB71F
:10238000F89482E08093E9008091E80085FF16C010
:1023900081E08093F10080915C018093F100EEE692
:1023A000F1E081918093F10081E0E338F807C9F70B
:1023B0008AE38093E800109261019D7F2FBF92FF16
:1023C00016C03FB7F89422E02093E9008091E8001E
:1023D00085FF0CC02093F100809183018093F10070
:1023E0008AE38093E800109262019B7F3FBF93FFD6
:1023F00021C02FB7F89482E08093E9008091E80033
:1024000085FF15C083E08093F10080918401809363
:10241000F100809185018093F10080918601809385
:10242000F1008AE38093E80010926301977F2FBF49
:1024300001C0917F892F0895482F80915E018823E4
:1024400009F44DC080915901882309F048C080915A
:102450005A01882309F043C080911201882309F4AE
:102460003EC02FB7F89483E08093E90080916D011E
:10247000882341F08091E80085FD02C02FBF12C083
:1024800010926D019091E4009C5F33E08091E80030
:1024900085FD13C02FBF8091E400891729F481E0E6
:1024A00080936D018FEF089580915E018823B9F0CC
:1024B0002FB7F8943093E900E9CF4093F100809171
:1024C000E80085FD06C08AE38093E80010926B0166
:1024D00003C082E080936B012FBF80E008958FEFEF
:1024E00008951F920F920FB60F920BB60F92112400
:1024F0002F938F939F93EF93FF938091E10010921E
:10250000E100282F83FF17C01092E90081E080933B
:10251000EB001092EC0092E29093ED0098E0909323
:10252000F00010925E0110925B011092590110921E
:102530005A018093120120FF08C08091E20080615F
:102540008093E20081E08093590124FF0BC08091C9
:102550005901882339F08091E2008F7E8093E20058
:102560001092590125FF02C010925A0122FFDBC0D0
:1025700080915E01882309F4D6C0809112018823DE
:10258000B1F080916B01882391F0815080936B01B1
:10259000882369F483E08093E90002C01092F1007F
:1025A0008091E80085FDFACF8AE38093E80080916E
:1025B0001201882371F080916001882319F0815005
:1025C0008093600180915F01882319F0815080938E
:1025D0005F0180916C018F5F80936C0190E083704C
:1025E0009070892B09F09FC090911601992389F171
:1025F00081E08093E9008091E80085FF2AC0809106
:1026000064018F5F80936401891718F1109264014F
:1026100080915C018093F1001092F100809165013E
:102620008093F100809166018093F10080916701B1
:102630008093F100809168018093F100809169019D
:102640008093F10080916A018093F1008AE3809386
:10265000E80080911201882309F465C082E080932C
:10266000E90090911301992301F18091E80085FF21
:102670001CC0809161018F5F809361018917A8F070
:102680001092610181E08093F10080915C01809360
:10269000F100EEE6F1E081918093F10081E0E33812
:1026A000F807C9F78AE38093E80090911401992311
:1026B000B9F08091E80085FF13C0809162018F5FBF
:1026C00080936201891760F01092620182E080932A
:1026D000F100809183018093F1008AE38093E80008
:1026E000909115019923F9F08091E80085FF1BC0B6
:1026F000809163018F5F809363018917A0F010922E
:10270000630183E08093F100809184018093F10064
:10271000809185018093F100809186018093F10082
:102720008AE38093E800FF91EF919F918F912F9121
:102730000F900BBE0F900FBE0F901F9018951F9219
:102740000F920FB60F920BB60F9211242F933F9357
:102750004F935F936F937F938F939F93AF93BF93A9
:10276000CF93DF93EF93FF931092E9008091E800FD
:1027700083FF4BC26091F1003091F1008091F10034
:10278000482F50E02091F100922F80E0482B592BE8
:102790008091F100A82FB0E02091F100922F80E00D
:1027A000A82BB92B8091F100C82FD0E02091F10027
:1027B000922F80E0C82BD92B82EF8093E80036302F
:1027C00009F056C025EF32E0B90165507040F901BB
:1027D00037978591949184179507E1F4FB018591D2
:1027E00094918A179B07B1F49B012E5F3F4FF9012B
:1027F000659174912E5F3F4FF9012491CE01CF3F37
:10280000D10519F010F08FEF90E0422F821758F4A5
:10281000482F09C0295F3F4F695F7F4FF3E02035A4
:102820003F07A9F6F2C15EEF8091E800282F30E063
:10283000C90185709070892BB9F322FDE9C1342F4D
:10284000413208F030E2232FCB0106C0FC01019693
:10285000E491E093F10021502223C1F7630F711D31
:10286000431B5093E8004423F9F63032E9F2D0C11B
:10287000862F8F7709F05BC0353061F48EEF80933F
:10288000E8008091E80080FFFCCF842F806880936F
:10289000E300BEC1393019F540935E018EEF80939D
:1028A000E80089E493E021E02093E900FC0101962F
:1028B000E491E093EB00EE2369F0AC014F5F5F4FD2
:1028C000FC0184918093EC00CA010196FA013491D5
:1028D0003093ED002F5F263039F78EE164C0383039
:1028E00039F48091E80080FFFCCF80915E010AC13D
:1028F000332341F48091E80080FFFCCF80915B019D
:10290000880F2BC0313019F0333009F07EC14130CF
:10291000510509F07AC18EEF8093E800313019F447
:1029200010925B0175C181E080935B0171C18230BF
:1029300009F03EC03323B1F48091E80080FFFCCF62
:10294000A093E9008091EB0090E025E096958795B3
:102950002A95E1F781701092E9008093F1001092BE
:10296000F1004FC1313019F0333009F04EC1452B21
:1029700009F04BC12A2F2F77822F8150853008F024
:1029800044C18EEF8093E8002093E900333009F4CE
:102990003CC189E18093EB0081E090E002C0880FA8
:1029A000991F2A95E2F78093EA001092EA0030C15D
:1029B000813209F02AC1A230B10509F06CC0E42FC0
:1029C000313069F58091E80080FFFCCFE13081F47F
:1029D000E093F10080915C018093F100EEE6F1E07C
:1029E00081918093F10081E0E338F807C9F709C1CC
:1029F000E23029F4E093F1008091830183C0E33059
:102A000009F0FFC0E093F100809184018093F10010
:102A1000809185018093F1008091860173C03930E7
:102A200039F48091E80082FFFCCF8091F10073C0FF
:102A3000323071F48091E80080FFFCCFEE2329F062
:102A4000F0E0EE5EFE4F80815DC0809113015AC0C0
:102A50003A3009F0DAC0442371F0A42FB0E01197A6
:102A6000FD01ED5EFE4F5083552309F0CAC0AF59FA
:102A7000BE4F1C92C6C05093130150931401509343
:102A80001501552309F0BDC0109261011092620139
:102A900010926301B6C0109709F055C0313009F5A6
:102AA0008091E80080FFFCCF80915C018093F10071
:102AB0001092F100809165018093F1008091660190
:102AC0008093F100809167018093F100809168010B
:102AD0008093F100809169018093F10080916A01F7
:102AE00011C0323039F48091E80080FFFCCF809132
:102AF000160108C0333049F48091E80080FFFCCF14
:102B0000809112018093F1007CC0393061F4809192
:102B1000E80082FFFCCF8091F10080935D018BEF94
:102B20008093E8006EC03A3041F45093160155236B
:102B300009F067C01092640164C03B3009F065C0C1
:102B4000409312015EC0A130B10519F5313009F092
:102B50005CC04C2F5EEF8091E800282F30E0C90167
:102B600085709070892BB9F322FD52C0942F4132A9
:102B700008F090E2892F03C01092F1008150882361
:102B8000D9F7491B5093E800442329F7903219F3F1
:102B90003FC01397D1F5313001F540E45EEF8091ED
:102BA000E800282F30E0C90185709070892BB9F3B7
:102BB00022FD2EC0942F413208F090E2892F03C0ED
:102BC0001092F10081508823D9F7491B5093E800F7
:102BD000442329F7903219F31BC03930B1F490E443
:102BE0002BEF8091E80082FFFCCF2093E800892F33
:102BF000913208F080E2981BA1F78091E80080FFF5
:102C0000FCCF8EEF8093E80003C081E28093EB005D
:102C1000FF91EF91DF91CF91BF91AF919F918F91F4
:102C20007F916F915F914F913F912F910F900BBECC
:102C30000F900FBE0F901F901895FC0180915E01C0
:102C4000882339F12FB7F8946093600185E0809371
:102C5000E90095E08091E80085FF02C090E40EC095
:102C60002FBF809160018823A9F080915E018823A5
:102C700081F02FB7F8949093E900ECCF8091F100A8
:102C800081939150D9F78BE68093E8002FBF80E4C1
:102C900008958FEF0895FC0180915E01882339F13A
:102CA0002FB7F89460935F0184E08093E90094E08B
:102CB0008091E80085FF02C090E40EC02FBF809194
:102CC0005F018823A9F080915E01882381F02FB7EE
:102CD000F8949093E900ECCF81918093F1009150AA
:102CE000D9F78AE38093E8002FBF80E408958FEF3F
:102CF0000895A2CB0895982F8A3010F087E301C081
:102D000080E3890F99CB1F93182F82958F70F3DF83
:102D1000812F8F70F0DF1F9108951F93182F892F37
:102D2000F2DF812FF0DF1F9108951F93CF93DF9380
:102D3000EC01FE0121961491112339F01A3011F49F
:102D40008DE07ADB812F78DBF4CFDF91CF911F917B
:102D50000895382F20918C01E0918901F0918A012A
:102D600090E009C0DF0180813296831719F4119633
:102D70008C9108959F5F9217A8F380E008950F93B8
:102D80001F93CF93DF93182F062F80918F018823F5
:102D9000B1F1662349F0E0919101F0919201E10FC8
:102DA000F11D809190018083C12FD0E0E0919101CD
:102DB000F0919201EC0FFD1F8081CBDF282F88233B
:102DC000F1F080918F018217D0F081E090E0821BBA
:102DD0009109880F991FE0918D01F0918E01E81BF8
:102DE000F90B0190F081E02DEC0FFD1F808188230D
:102DF00011F0E82F09C0C654DE4FE88105C0E12F6D
:102E0000F0E0E654FE4FE0812E2F30E0C901887FCC
:102E10009070803D9105D9F44091900127703070F9
:102E2000002349F081E090E002C0880F991F2A95A5
:102E3000E2F7482B09C081E090E002C0880F991F9B
:102E40002A95E2F78095482340939001E0E08E2F89
:102E5000DF91CF911F910F91089510928B011092E5
:102E60008C0110928F0110928A01109289011092A8
:102E70008E0110928D01109292011092910108958D
:102E8000ECDF80E08150E82FF0E0E654FE4F8083D5
:102E90008823C1F70895382F20918C0180918B01F0
:102EA000281778F4822F90E0880F991FE09189010C
:102EB000F0918A01E80FF91F308361832F5F20931F
:102EC0008C0108951092900180919101909192014E
:102ED000892B59F080E08150E0919101F0919201AD
:102EE000E80FF11D10828823B1F70895AF92BF92C9
:102EF000CF92DF92EF92FF920F93DF93CF9300D0A8
:102F0000CDB7DEB75C01E62E80918F01841770F19A
:102F1000442329F46AEBC62E61E0D62E0EC081E070
:102F200090E0841B9109880F991FE0918D01F09129
:102F30008E01E81BF90BC080D18000E015C0C501EF
:102F400001969A838983C5010E949F22F82EE2E0B0
:102F5000F0E0AE0EBF1E89819A810E949F22F60189
:102F6000EF0DF11D80830F5F0E1548F30F900F904A
:102F7000CF91DF910F91FF90EF90DF90CF90BF90B6
:102F8000AF900895EF92FF920F931F93CF93DF932B
:102F9000E82EF62E662309F44FC080E091E053D866
:102FA00090939201809391018DDFCF2DD0E00E2D73
:102FB00010E0CE019695982F8827979587958C0FCE
:102FC0009D1F800F911F880F991F3DD89C019093E2
:102FD0008A0180938901009711F480E02EC0E0926D
:102FE0008B01F0928F01C801880F991F820F931FE8
:102FF00090938E0180938D019E01220F331F280F25
:10300000391F90E040E050E015C0E0918D01F09153
:103010008E01E40FF51F3183208380E08150F90198
:10302000E80FF11D10828823C9F720503F4F9F5FA2
:103030004E5F5F4F9F1548F381E0DF91CF911F9165
:103040000F91FF90EF90089581E08093980108958B
:10305000109298010895582F40919701E0919401A2
:10306000F091950130E014C08081851779F4818159
:103070002281922F90959823962392959F70692B89
:103080008627822319F42381348106C03F5F359659
:10309000341750F320E030E0C901089510929801F0
:1030A0001092960110929701809194019091950150
:1030B000892B21F010929501109294010895EECF82
:1030C0000895109293018091BA029091BB02892BCE
:1030D00059F080E08150E091BA02F091BB02E80F14
:1030E000F11D10828823B1F708957F928F929F92ED
:1030F000AF92BF92CF92DF92EF92FF920F931F9306
:10310000CF93DF93862E90909601C0919401D09139
:103110009501AA2425E0722E3DC0B0909701B91404
:10312000D9F1B79C70011124EC0EFD1E8C010F5FCC
:103130001F4F0E949F22F701808368010894C11CE1
:10314000D11CC8010E949F22F701818386010F5F75
:103150001F4FC6010E949F22F701828314830383BD
:1031600078010894E11CF11CC8010E949F22182FCD
:10317000C7010E949F228F731F73810F880F0894CD
:10318000E11CF11C9701280F311DC901B394B092C5
:103190009701A394A81408F2DF91CF911F910F918A
:1031A000FF90EF90DF90CF90BF90AF909F908F9067
:1031B0007F9008951F93182F662349F080E091E0D7
:1031C0000E9423109093BB028093BA027ADF85E0BD
:1031D000189FC00111240E942310909395018093A1
:1031E0009401009711F480E005C0109396011092AD
:1031F000970181E01F910895BF92CF92DF92EF92E5
:10320000FF920F931F93CF93DF93C62EB42E8C01A2
:103210000F5F1F4F0E949F22F82EE8012196C801E0
:103220000E949F22D82E8F2D8F73BB2011F0E82E85
:103230001DC04FE3E42EED2090E0880F991FC80FCA
:10324000D91FD7FE13C084E86C2DE0D70FC08E01C4
:103250000F5F1F4FCE010E949F22F82E2296C801B9
:103260000E949F22682F8F2DD1D7EA94EE2079F704
:10327000BB2029F4D7FE03C088E060E0C7D7DF9108
:10328000CF911F910F91FF90EF90DF90CF90BF9063
:103290000895FF920F931F93082FF62E109193011C
:1032A000E091BA02F091BB02309761F0662319F009
:1032B000E80FF11D1083E091BA02F091BB02E00F1C
:1032C000F11D108180919801882351F0802F612F8A
:1032D000C2DE009729F0612F4F2D8EDF51E001C033
:1032E00050E0202F30E0C901887F9070803E91052A
:1032F000D1F44091930127703070FF2049F081E0B4
:1033000090E002C0880F991F2A95E2F7482B09C068
:1033100081E090E002C0880F991F2A95E2F780951E
:10332000482340939301852F1F910F91FF9008959B
:103330008091990190E0882309F491E0892F089504
:103340009C0151E05093BF0280919901882311F0B4
:103350008FEF0895F99B02C08EEF08957093BD0220
:103360006093BC023093C1022093C0024093BE021E
:1033700050939901FB9A80E008951F920F920FB627
:103380000F920BB60F9211242F933F934F935F939D
:103390006F937F938F939F93AF93BF93EF93FF931D
:1033A0008091BE02882331F18091BF028823A1F170
:1033B0008091BC029091BD020E949F2225C0809105
:1033C000BE0281508093BE028091C0029091C102E2
:1033D00001969093C1028093C0028091BC029091AB
:1033E000BD0201969093BD028093BC028091BE0203
:1033F000882321F4FB981092990133C08091BC027C
:103400009091BD020E949F22982FE091C002F091FE
:10341000C1028081981799F28091BC029091BD02FF
:1034200092BD81BDE091C002F091C102808180BD5A
:10343000FA9AF99A8091BE0281508093BE028091DF
:10344000C0029091C10201969093C1028093C00284
:103450008091BC029091BD0201969093BD02809331
:10346000BC02FF91EF91BF91AF919F918F917F919E
:103470006F915F914F913F912F910F900BBE0F90E5
:103480000FBE0F901F901895E2E0F0E089E0809366
:103490005700849183FD5AC0F89481E08093E00046
:1034A00080E28093D8001092C90080E29EE40197E8
:1034B000F1F71DBA109268001CBC10BE1FBA109222
:1034C0007A0010926E0010926F00109270001092AD
:1034D00071001092C9001092BC0011B814B817B84E
:1034E0001AB81DB810BA12B815B818B81BB81EB85B
:1034F00011BAE3E0F0E089E0809357008491867090
:10350000869593E0892720E034E002C0220F331F24
:103510008A95E2F788E02030380791F088E0213082
:10352000380720F42050344089F408C080E120306E
:10353000380741F02050304249F406C00C9400FE98
:103540000C9400FC0C9400F80C9400F00895809307
:10355000A2017093A4016093A3010895282F285D10
:1035600069F081E090E002C0880F991F2A95E2F788
:1035700020911801282720931801089581E0809355
:103580001801089587E296E0D0DB80E008951F934C
:1035900080E090E0D4D7182F81E090E0D0D720E0F1
:1035A00093E4982783E58127982B09F421E0822F63
:1035B0001F910895DF92EF92FF920F931F93CF9385
:1035C000DF93EC01D62E86E0861710F0F0E03EC0C7
:1035D000CE010396B4D7E82E80939E018E010B5F37
:1035E0001F4F2496CE01ABD7F82E80939F01C801C0
:1035F000A6D7182F8093A001CE010296A0D7E82F5E
:103600008093A1016F2D70E0A12FB0E0EE2011F0AA
:1036100013E001C010E0F0E08D2D90E007979D01D0
:10362000260F371F2E0F311D6E0D711D6A9FA001D1
:103630006B9F500D7A9F500D1124E40F2E0F311DFA
:10364000210F311D8217930709F4F1E08F2FDF91CD
:10365000CF911F910F91FF90EF90DF900895EF921F
:10366000FF920F931F93CF93DF93E62E142F00E06A
:1036700020C0153010F1EC012496039660D7F82E87
:10368000CE015DD7982F9F7329F080919D018F5FA8
:1036900080939D012F2D2F73290F220F412F45500D
:1036A000421758F0CE010196820F911D142F121B64
:1036B0000F5F0E15F0F281E001C080E0DF91CF9145
:1036C0001F910F91FF90EF90089583E090E060E0EC
:1036D00043D782E090E060E03FD781E090E063E490
:1036E0003BD780E090E063E537C751DF882309F4DA
:1036F000ECCF08957F928F929F92AF92BF92CF921C
:10370000DF92EF92FF920F931F93CF93DF938C0181
:103710000F5F1F4F14D7B82E78010894E11CF11CDD
:10372000C8010DD7C82E87010F5F1F4FC70107D7EC
:10373000D82E78010894E11CF11CC80100D7782E1E
:1037400080939E0187010F5F1F4FC701F8D6A82EF7
:1037500080939F0178010894E11CF11CC801EFD609
:10376000882E8093A001E7012196C701E8D6982E04
:103770008093A1018B2D6C2D4D2D0E94A50580916C
:103780009E018823B1F08E010F5F1F4FCE01D7D667
:10379000D82E78010894E11CF11CC801D0D6182F4E
:1037A000E7012196C701CBD6482F8D2D612F0E94AE
:1037B000D705CE0160919F010E94920B80919F01DD
:1037C0008E01080F111DC8016091A0010E942B0BF2
:1037D0008091A001080F111DC8016091A1010E94F4
:1037E000C70A8091A101A70CA89C602D1124690D26
:1037F0009801280F311DC9010E94950ADF91CF91D0
:103800001F910F91FF90EF90DF90CF90BF90AF90FE
:103810009F908F907F900895FF920F931F93CF9367
:10382000DF93EC01F62E00E016C0CE0188D6182FEB
:10383000CE01019684D6682F123031F0133031F06A
:10384000113039F480E003C082E001C081E00E94C1
:10385000610422960F5F0F1540F3DF91CF911F9106
:103860000F91FF900895AF92BF92DF92EF92FF9277
:103870000F931F93CF93DF93E62ED42EEC01219666
:10388000CE015DD6F82E082F0770DD20E9F4023056
:1038900091F0033028F4002341F00130A9F408C06E
:1038A000033061F0043081F40CC08FE196E00BC06E
:1038B00087E196E008C08FE096E005C087E096E0DB
:1038C00002C08FEF95E031DA4F2D50E020911801C2
:1038D00030E0CA018873907063E0959587956A958A
:1038E000E1F702C0359527958A95E2F720FD06C0DD
:1038F000DD2009F0D9C086EF95E02DC021961E2D60
:103900001250F6FE18C0CE011AD690E02091A20106
:1039100030E02150304002C0959587952A95E2F716
:1039200080FD06C0DD2009F0BFC080EF95E013C028
:1039300021961E2D1350F7FE12C0CE0108D62091FD
:10394000A3013091A4018217930739F0DD2009F01B
:10395000ABC08BEE95E0E9D9A7C022961250023099
:1039600009F464C0033028F4002359F0013039F41D
:103970003EC0033009F476C0043009F488C080E00A
:1039800094C0112309F48EC0CE01D9D5482FA82E9A
:10399000BB249501220F331F1150812F90E028176F
:1039A000390709F07FC0DD2029F480919A01840F46
:1039B00080939A01219600E010E015C0CE01BFD59A
:1039C000F82ECE010196BBD5682FDD2019F08F2D82
:1039D00062DA06C080919B01861710F460939B0108
:1039E00022960F5F1F4F0A151B0544F35DC012306E
:1039F00008F458C07E010894E11CF11CCE019FD54B
:103A0000082FC7019CD5682F90E0880F991F12508E
:103A1000212F30E08217930709F044C0DD2009F41C
:103A200043C0C7010196402F61DA3EC0112309F45B
:103A300039C07E010894E11CF11CCE0180D5082F0D
:103A4000DD2021F0C701602F50DB2EC0C701602FA1
:103A5000412F05DE882331F180919C01800F8093F6
:103A60009C0122C01123F1F0CE0169D5682F412FAE
:103A7000415090E0880F991F242F30E08217930760
:103A800089F4DD2089F0CE010196C6DE0DC0DD206F
:103A900021F0CE01612F2EDE07C0CE01612F8ADD1D
:103AA000882311F46FDD01C081E0DF91CF911F9178
:103AB0000F91FF90EF90DF90BF90AF900895EF923D
:103AC000FF920F931F93CF93DF93F9DAD9D90E9416
:103AD00020080E94441010929A0110929B011092AB
:103AE0009C0110929D0110929E0110929F011092D4
:103AF000A0011092A1014BDD882309F4D0C082E01F
:103B000090E025D58C017CEFE72E7FEFF72EE80EB5
:103B1000F91E8DED95E009D9C701FFD88AE0E9D8F3
:103B200005501040065F1F4008F0B9C084E090E0E7
:103B300006D5813009F0B3C085E090E000D584302F
:103B400008F0ADC0C8E0D0E020C0CE01F8D4182FF6
:103B5000DAD880E4CED8CE01E0D880E2CAD81230DC
:103B600018F486ED95E076C0CE01612F40E07BDE53
:103B7000882319F48EEC95E06DC08AE0BAD8812FC5
:103B800090E0C80FD91FE81AF90A1E141F04ECF2BE
:103B900082EC95E0CAD880919A01B5D88AE0A9D87C
:103BA00086EB95E0C2D880919B01ADD88AE0A1D880
:103BB00087EA95E0BAD880919C01A5D88AE099D887
:103BC00086E995E0B2D880919F019DD88AE091D88E
:103BD00086E895E0AAD88091A00195D88AE089D896
:103BE00083E795E0A2D88091A1018DD88AE081D8A1
:103BF00085E695E09AD88091A00190919F01899FD8
:103C0000802D11249091A101890F7DD88AE071D86F
:103C100080919A0160919B01B5D9882399F0809198
:103C20009C0160919D01C6DA882361F080919E011C
:103C300060919F014091A0012091A1010E94F90B88
:103C4000882351F43CDA09D90E9420080E944410CC
:103C500086E595E06AD823C08BE495E066D882E0DB
:103C600090E075D48C0104501040C8E0D0E00FC043
:103C7000CE0165D4F82ECE016F2D41E0F4DD88230E
:103C800071F08F2D90E0C80FD91F081B190B10166B
:103C9000110674F30E949906D7D981E001C080E033
:103CA000DF91CF911F910F91FF90EF900895CF92E8
:103CB000DF92EF92FF920F931F93CF93DF93C09009
:103CC000A90123E0C21609F41AC12C1540F081E0C5
:103CD000C81609F4DFC08C1508F4E2C00CC0E5E09A
:103CE000CE1609F45BC1CE1608F449C1F6E0CF1632
:103CF00009F0B6C193C183EC92E060E00E941D160A
:103D000018160CF0BAC01091C302123009F43BC06F
:103D1000133020F4113009F0B0C007C0133009F49B
:103D200065C0143009F0A9C08CC0EEE2F6E0A3EC47
:103D3000B2E084918D93319626E0E734F207C9F71B
:103D400082E090E004D4EC01009759F084E090E028
:103D5000F6D3182F85E090E0F2D31093CD02809334
:103D6000CE02882799278C1B9D0B8450904F8093FF
:103D7000D9029093DA020E9410108093D30290939C
:103D8000D40282E02BC03091C50220E08091C402B1
:103D900090E0822B932B9093AB018093AA01875FD5
:103DA0009F40D8F484E090E09093AD018093AC0103
:103DB0001092AF011092AE018EEA91E062E070E0E5
:103DC00042E0BEDA882349F41093C20282EC92E00A
:103DD00060E00E944B163CD961C081E08093C20232
:103DE00082EC92E060E00E944B1647C082E090E0D7
:103DF0009093AD018093AC018AEA91E062E070E0BB
:103E000042E050E08CD32091AA013091AB01FFE059
:103E1000273F3F0710F78091AC019091AD010296CA
:103E20009093AD018093AC012093C3023093C40200
:103E300082E08093C20282EC92E060E00E944B1626
:103E4000EBC08FB7F894209152013091530140910B
:103E50005401509155018FBF2093B0013093B101AF
:103E60004093B2015093B30182E08093C20282EC8E
:103E700092E060E00E944B16EDC090911801809195
:103E80001701981709F4E9C01ADE80911801809390
:103E90001701E3C04DDA882309F050C081E0DEC08D
:103EA00083EC92E060E00E941D1618160CF04EC0E4
:103EB0008091C302823809F059C01091C402212FA9
:103EC00030E08091AA019091AB018217930708F42A
:103ED0004DC06091AC017091AD0187EC92E0412F33
:103EE0002FDA882309F042C01093B40182E0809356
:103EF000C20282EC92E060E00E944B1603C018DA26
:103F0000882311F483E0AAC0C091AC01D091AD0127
:103F1000D090B401E7ECEE2EE2E0FE2E8E0109C057
:103F2000C8010DD3F70191917F018917F9F40F5F53
:103F30001F4F802F8C1B8D1598F3C0C083E080939A
:103F4000C20282EC92E060E00E944B1682E086C0E2
:103F5000245030403093AF012093AE018EEA91E0BF
:103F600062E070E042E0ECD9882361F081E0809368
:103F7000C20282EC92E060E00E944B166EC0D8D97B
:103F8000882311F484E06AC084E08093C20282EC4A
:103F900092E060E00E944B1692DD5FC083EC92E0FD
:103FA00060E00E941D161816BCF58091C302833094
:103FB00031F0843009F451C0813071F54EC0009168
:103FC000AA011091AB010115110531F10134110560
:103FD00008F000E410E06091AC017091AD0183EC59
:103FE00092E0A8019CD283EC92E060E00E944B1624
:103FF0008091AA019091AB01801B910B9093AB0132
:104000008093AA018091AC019091AD01800F911F26
:104010009093AD018093AC0185E020C08FB7F894F8
:10402000209152013091530140915401509155011A
:104030008FBF8091B0019091B101A091B201B09178
:10404000B301281B390B4A0B5B0B295E3340404000
:10405000504010F486E002C017DA80E08093A90196
:104060008FB7F8942091520130915301409154013F
:10407000509155018FBF8091A901882311F08C15B3
:1040800049F02093A5013093A6014093A7015093D6
:10409000A8012AC08091A5019091A601A091A70135
:1040A000B091A801281B390B4A0B5B0B29583341EF
:1040B00040405040C8F01092A90116C02D2D30E0AC
:1040C0008091AA019091AB01821B930B9093AB015D
:1040D0008093AA012C0F3D1F3093AD012093AC01BA
:1040E000892B09F02BCF34CFDF91CF911F910F9106
:1040F000FF90EF90DF90CF900895982F977021E078
:1041000030E001C0220F9A95EAF78695869586954C
:1041100090E0662351F0FC01ED5FFC4F9081822F0F
:10412000892379F4292B20830895FC01ED5FFC4F4E
:104130009081822F892329F020952923208380E0F4
:10414000089581E0089580915D01089580911201A4
:1041500008950E946210C9DA0C944017E3E0F3E07E
:10416000119283E0E332F807D9F70E9462170E94A8
:10417000611887C08BE060E049C01F93182F60E092
:10418000BCDF8823B9F48DE20E947916812F0E944A
:10419000831680E20E947916812F60E00E94BF168C
:1041A000182F882339F060E074D8882319F483E04D
:1041B000612F2CD01F9108951F93182F61E09DDF70
:1041C0008823B9F48BE20E947916812F0E9483160E
:1041D00080E20E947916812F61E00E94BF16182F9D
:1041E000882339F061E055D8882319F482E0612FE3
:1041F0000DD01F9108958091B60190E00197209114
:10420000B501821B910960E570E062C10F931F93B5
:10421000082F162FF0DF8823B1F08091B50190E0D0
:10422000FC01EE0FFF1FE55DFC4F412F50E0302FEA
:1042300020E0422B532B51834083019660E570E0D0
:1042400047D18093B5011F910F9108959091B601C8
:104250008091B501891719F4E0E0F0E010C0892FD2
:1042600090E0FC01EE0FFF1FE55DFC4F0190F08137
:10427000E02D019660E570E02BD18093B601CF016F
:1042800008958091B5018093B60108950F931F930F
:1042900080915901882321F480915A01882391F05B
:1042A00080915A01882309F004C19091B501809151
:1042B000B601981709F4FDC00E9480108AE080932F
:1042C000B801F7C08091B801882361F081508093D4
:1042D000B801882309F0EDC041DF0E944B108093A4
:1042E000B901E7C0E091B6018091B5018E1719F4CC
:1042F000E0E0F0E008C0F0E0EE0FFF1FE55DFC4FEE
:104300000190F081E02D8F01F7FF0FC09091B70170
:10431000983050F4E92FF0E0ED5DFC4F80915C01A6
:1043200080839F5F9093B7011F77113091F11A300E
:1043300009F48EC08BDF163009F469C0173090F491
:10434000133009F44AC0143030F4113011F1123036
:1043500009F09AC02EC0143009F452C0153009F08B
:1043600093C051C0193009F467C01A3038F41730BF
:1043700009F452C0183009F087C052C01B3039F020
:104380001B3008F465C01C3009F07EC077C010E017
:1043900077C0E091B6018091B5018E1751F0F0E041
:1043A000EE0FFF1FE55DFC4F802F90E0936091833F
:1043B0008083802F887F883D19F4802FCFD864C0F8
:1043C00084E60E947916802F0E94831680E20E9464
:1043D0007916802F0E94911011C0802F887F883D10
:1043E00009F452C085E70E947916802F0E94831637
:1043F00080E20E947916802F0E940F11982F45C0ED
:1044000000935C0123C080915C01802B1DC000954E
:1044100080915C01802318C080915C01802714C0CA
:10442000E091B701EE2381F1E150E093B701F0E0B4
:10443000ED5DFC4F808108C08091B701882321F198
:104440001092B7018091230380935C0193E01DC01B
:10445000902F915089F0E091B6018091B5018E17AF
:1044600099F0F0E0EE0FFF1FE55DFC4F892F90E023
:104470009A609183808308C0E9DE06C06FDE11E098
:104480000E944B10982F02C090E010E08091B9017B
:10449000892B8093B901882321F00E948211809397
:1044A000B901112331F080E29EE40197F1F70E94F7
:1044B000441A1F910F910895991B79E004C0991F28
:1044C000961708F0961B881F7A95C9F7809508956E
:1044D00097FB092E07260AD077FD04D00CD006D012
:1044E00000201AF4709561957F4F0895F6F7909526
:1044F00081959F4F0895AA1BBB1B51E107C0AA1FBE
:10450000BB1FA617B70710F0A61BB70B881F991F74
:104510005A95A9F780959095BC01CD010895DC01CD
:10452000CB01FC01F999FECF06C0F2BDE1BDF89ABE
:10453000319600B40D9241505040B8F70895F99962
:10454000FECF92BD81BDF89A992780B50895A8E164
:10455000B0E042E050E0E5CF262FF999FECF1FBA38
:1045600092BD81BD20BD0FB6F894FA9AF99A0FBE9C
:0845700001960895F894FFCFB5
:10457800040105FE0101FFFF01FFFFFFFF7F0000AF
:0A458800CB03017D7D7D7D01010064
:00000001FF
